{
  "contractName": "LandTitle",
  "abi": [
    {
      "inputs": [],
      "payable": false,
      "stateMutability": "nonpayable",
      "type": "constructor"
    },
    {
      "anonymous": false,
      "inputs": [
        {
          "indexed": false,
          "internalType": "uint256",
          "name": "nonce",
          "type": "uint256"
        }
      ],
      "name": "LogRegistered",
      "type": "event"
    },
    {
      "anonymous": false,
      "inputs": [
        {
          "indexed": false,
          "internalType": "uint256",
          "name": "nonce",
          "type": "uint256"
        }
      ],
      "name": "LogSigned",
      "type": "event"
    },
    {
      "anonymous": false,
      "inputs": [
        {
          "indexed": false,
          "internalType": "uint256",
          "name": "nonce",
          "type": "uint256"
        }
      ],
      "name": "LogToBeRegistered",
      "type": "event"
    },
    {
      "anonymous": false,
      "inputs": [
        {
          "indexed": false,
          "internalType": "uint256",
          "name": "nonce",
          "type": "uint256"
        }
      ],
      "name": "LogToBeTransfered",
      "type": "event"
    },
    {
      "anonymous": false,
      "inputs": [
        {
          "indexed": false,
          "internalType": "uint256",
          "name": "nonce",
          "type": "uint256"
        }
      ],
      "name": "LogTrasnfered",
      "type": "event"
    },
    {
      "constant": true,
      "inputs": [],
      "name": "nonce",
      "outputs": [
        {
          "internalType": "uint256",
          "name": "",
          "type": "uint256"
        }
      ],
      "payable": false,
      "stateMutability": "view",
      "type": "function"
    },
    {
      "constant": true,
      "inputs": [],
      "name": "owner",
      "outputs": [
        {
          "internalType": "address",
          "name": "",
          "type": "address"
        }
      ],
      "payable": false,
      "stateMutability": "view",
      "type": "function"
    },
    {
      "constant": true,
      "inputs": [],
      "name": "registryAddress",
      "outputs": [
        {
          "internalType": "address payable",
          "name": "",
          "type": "address"
        }
      ],
      "payable": false,
      "stateMutability": "view",
      "type": "function"
    },
    {
      "constant": true,
      "inputs": [],
      "name": "registryFee",
      "outputs": [
        {
          "internalType": "uint256",
          "name": "",
          "type": "uint256"
        }
      ],
      "payable": false,
      "stateMutability": "view",
      "type": "function"
    },
    {
      "constant": true,
      "inputs": [],
      "name": "transferFee",
      "outputs": [
        {
          "internalType": "uint256",
          "name": "",
          "type": "uint256"
        }
      ],
      "payable": false,
      "stateMutability": "view",
      "type": "function"
    },
    {
      "constant": false,
      "inputs": [
        {
          "internalType": "string",
          "name": "_ID",
          "type": "string"
        },
        {
          "internalType": "uint256",
          "name": "_size",
          "type": "uint256"
        },
        {
          "internalType": "string",
          "name": "_location",
          "type": "string"
        },
        {
          "internalType": "string",
          "name": "_image",
          "type": "string"
        }
      ],
      "name": "addTitle",
      "outputs": [
        {
          "internalType": "bool",
          "name": "",
          "type": "bool"
        }
      ],
      "payable": false,
      "stateMutability": "nonpayable",
      "type": "function"
    },
    {
      "constant": false,
      "inputs": [],
      "name": "kill",
      "outputs": [],
      "payable": false,
      "stateMutability": "nonpayable",
      "type": "function"
    },
    {
      "constant": true,
      "inputs": [
        {
          "internalType": "uint256",
          "name": "_nonce",
          "type": "uint256"
        }
      ],
      "name": "fetchTitle",
      "outputs": [
        {
          "internalType": "string",
          "name": "ID",
          "type": "string"
        },
        {
          "internalType": "address",
          "name": "currOwner",
          "type": "address"
        },
        {
          "internalType": "uint256",
          "name": "none",
          "type": "uint256"
        },
        {
          "internalType": "uint256",
          "name": "size",
          "type": "uint256"
        },
        {
          "internalType": "string",
          "name": "location",
          "type": "string"
        },
        {
          "internalType": "string",
          "name": "image",
          "type": "string"
        },
        {
          "internalType": "uint256",
          "name": "state",
          "type": "uint256"
        }
      ],
      "payable": false,
      "stateMutability": "view",
      "type": "function"
    }
  ],
  "bytecode": "0x608060405234801561001057600080fd5b5033600160006101000a81548173ffffffffffffffffffffffffffffffffffffffff021916908373ffffffffffffffffffffffffffffffffffffffff16021790555060016000806101000a81548173ffffffffffffffffffffffffffffffffffffffff021916908373ffffffffffffffffffffffffffffffffffffffff160217905550600160028190555060016003819055506000600481905550610b62806100ba6000396000f3fe608060405234801561001057600080fd5b50600436106100885760003560e01c8063a99f848d1161005b578063a99f848d1461030a578063acb2ad6f146104d1578063affed0e0146104ef578063ed9aab511461050d57610088565b80631f750e2e1461008d57806341c0e1b5146100ab5780635d426d09146100b55780638da5cb5b146102c0575b600080fd5b610095610557565b6040518082815260200191505060405180910390f35b6100b361055d565b005b6102a6600480360360808110156100cb57600080fd5b81019080803590602001906401000000008111156100e857600080fd5b8201836020820111156100fa57600080fd5b8035906020019184600183028401116401000000008311171561011c57600080fd5b91908080601f016020809104026020016040519081016040528093929190818152602001838380828437600081840152601f19601f820116905080830192505050505050509192919290803590602001909291908035906020019064010000000081111561018957600080fd5b82018360208201111561019b57600080fd5b803590602001918460018302840111640100000000831117156101bd57600080fd5b91908080601f016020809104026020016040519081016040528093929190818152602001838380828437600081840152601f19601f8201169050808301925050505050505091929192908035906020019064010000000081111561022057600080fd5b82018360208201111561023257600080fd5b8035906020019184600183028401116401000000008311171561025457600080fd5b91908080601f016020809104026020016040519081016040528093929190818152602001838380828437600081840152601f19601f8201169050808301925050505050505091929192905050506105d0565b604051808215151515815260200191505060405180910390f35b6102c861076d565b604051808273ffffffffffffffffffffffffffffffffffffffff1673ffffffffffffffffffffffffffffffffffffffff16815260200191505060405180910390f35b6103366004803603602081101561032057600080fd5b8101908080359060200190929190505050610793565b60405180806020018873ffffffffffffffffffffffffffffffffffffffff1673ffffffffffffffffffffffffffffffffffffffff168152602001878152602001868152602001806020018060200185815260200184810384528b818151815260200191508051906020019080838360005b838110156103c25780820151818401526020810190506103a7565b50505050905090810190601f1680156103ef5780820380516001836020036101000a031916815260200191505b50848103835287818151815260200191508051906020019080838360005b8381101561042857808201518184015260208101905061040d565b50505050905090810190601f1680156104555780820380516001836020036101000a031916815260200191505b50848103825286818151815260200191508051906020019080838360005b8381101561048e578082015181840152602081019050610473565b50505050905090810190601f1680156104bb5780820380516001836020036101000a031916815260200191505b509a505050505050505050505060405180910390f35b6104d9610a57565b6040518082815260200191505060405180910390f35b6104f7610a5d565b6040518082815260200191505060405180910390f35b610515610a63565b604051808273ffffffffffffffffffffffffffffffffffffffff1673ffffffffffffffffffffffffffffffffffffffff16815260200191505060405180910390f35b60025481565b600160009054906101000a900473ffffffffffffffffffffffffffffffffffffffff1673ffffffffffffffffffffffffffffffffffffffff163373ffffffffffffffffffffffffffffffffffffffff16146105b757600080fd5b3373ffffffffffffffffffffffffffffffffffffffff16ff5b60006040518060e001604052808681526020013373ffffffffffffffffffffffffffffffffffffffff1681526020018581526020018481526020018381526020016000600481111561061e57fe5b8152602001600454815250600860006004548152602001908152602001600020600082015181600001908051906020019061065a929190610a88565b5060208201518160010160006101000a81548173ffffffffffffffffffffffffffffffffffffffff021916908373ffffffffffffffffffffffffffffffffffffffff1602179055506040820151816002015560608201518160030190805190602001906106c8929190610a88565b5060808201518160040190805190602001906106e5929190610a88565b5060a08201518160050160006101000a81548160ff0219169083600481111561070a57fe5b021790555060c082015181600601559050507f79b4790426b7fe5ee1ed093303bfb105c37012c6ef8ca0a969473b5bb95dbcb46004546040518082815260200191505060405180910390a160016004540160048190555060019050949350505050565b600160009054906101000a900473ffffffffffffffffffffffffffffffffffffffff1681565b606060008060006060806000600860008981526020019081526020016000206000018054600181600116156101000203166002900480601f0160208091040260200160405190810160405280929190818152602001828054600181600116156101000203166002900480156108495780601f1061081e57610100808354040283529160200191610849565b820191906000526020600020905b81548152906001019060200180831161082c57829003601f168201915b505050505096506008600089815260200190815260200160002060010160009054906101000a900473ffffffffffffffffffffffffffffffffffffffff16955060086000898152602001908152602001600020600201549350600860008981526020019081526020016000206003018054600181600116156101000203166002900480601f01602080910402602001604051908101604052809291908181526020018280546001816001161561010002031660029004801561094c5780601f106109215761010080835404028352916020019161094c565b820191906000526020600020905b81548152906001019060200180831161092f57829003601f168201915b50505050509250600860008981526020019081526020016000206004018054600181600116156101000203166002900480601f0160208091040260200160405190810160405280929190818152602001828054600181600116156101000203166002900480156109fd5780601f106109d2576101008083540402835291602001916109fd565b820191906000526020600020905b8154815290600101906020018083116109e057829003601f168201915b505050505091506008600089815260200190815260200160002060050160009054906101000a900460ff166004811115610a3357fe5b90508686600454868686869650965096509650965096509650919395979092949650565b60035481565b60045481565b6000809054906101000a900473ffffffffffffffffffffffffffffffffffffffff1681565b828054600181600116156101000203166002900490600052602060002090601f016020900481019282601f10610ac957805160ff1916838001178555610af7565b82800160010185558215610af7579182015b82811115610af6578251825591602001919060010190610adb565b5b509050610b049190610b08565b5090565b610b2a91905b80821115610b26576000816000905550600101610b0e565b5090565b9056fea265627a7a723158203141976dea7d448c78224b34cb09e894d6cb5c4b4471519a0d3e36df5d54564664736f6c63430005100032",
  "source": "// SPDX-License-Identifier: MIT\npragma solidity >=0.4.22 <0.9.0;\n\n// import EthCrypto from 'eth-crypto';\n// // import 'eth-crypto';\n// const EthCrypto = require('eth-crypto');\n\ncontract LandTitle {\n  // Variables\n\n  // Land Registry Address\n  address payable public registryAddress;\n\n  // Land Owner's Address\n  address public owner;\n\n  // Land Title Registry Fee\n  uint256 public registryFee;\n\n  // Land Title Transfer Fee\n  uint256 public transferFee;\n\n  // Nonce to prevent replay attacks\n  /**\n  * A replay attack is when a signature is used again (“replayed”) \n  * to claim authorization for a second action. Just as in Ethereum \n  * transactions themselves, messages typically include a nonce to \n  * protect against replay attacks. The smart contract checks \n  * that no nonce is reused.\n   */\n  uint256 public nonce;\n  mapping(uint256 => bool) usedNonces;\n\n  // The `signature` is passed along from off-chain operations. \n  bytes32 private signature;\n  bytes32 private encrypted;\n\n  /** Enums are useful to model choice and keep track of state */\n  /** The order in which the enum is declared matters!! */\n  /** The first item is the default of the State enum, in this case */\n  enum State {\n    ToBeRegistered,\n    Signed,\n    Registered,\n    ToBeTransfered,\n    Transfered\n  }\n\n  /** Struct types are used to represent a record */\n  struct Title {\n    string ID;\n    address payable currOwner;\n    uint256 size;\n    string location;\n    string image;\n    State state;\n    // Unit test for this: \n    uint nonce;\n  }\n  mapping(uint256 => Title) titles;\n\n  /*\n   * Events\n   */\n  event LogToBeRegistered(uint256 nonce);\n  event LogSigned(uint256 nonce);\n  event LogRegistered(uint256 nonce);\n  event LogToBeTransfered(uint256 nonce);\n  event LogTrasnfered(uint256 nonce);\n\n  /*\n   * Modifiers\n   */\n  // Create a modifer, `isOwner` that checks if the msg.sender is the owner of the contract\n  // <modifier: isOwner\n  modifier isOwner() {\n    require(msg.sender == owner, \"Only owner can call this function\");\n    _;\n  }\n\n// Do I need this one given the above\n  modifier verifyCaller(address _address) {\n    require(\n      msg.sender == _address,\n      \"Only verified members can call this function\"\n    );\n    _;\n  }\n\n  modifier paidEnough(uint256 _price) {\n    require(\n      msg.value >= _price,\n      \"the amount should be enough to cover the purchase\"\n    );\n    _;\n  }\n\n  modifier checkValue(uint256 _nonce) {\n    //refund them after pay for item (why it is before, _ checks for logic before func)\n    _;\n    uint256 amountToRefund = msg.value - transferFee;\n    titles[_nonce].currOwner.transfer(amountToRefund);\n  }\n\n  modifier toBeRegistered(uint256 _nonce) {\n    require(\n      (titles[_nonce].currOwner != address(0) &&\n        titles[_nonce].state == State.ToBeRegistered),\n      \"The title should be on added in order to be registered\"\n    );\n    _;\n  }\n\n  modifier signed(uint256 _nonce) {\n    require(titles[_nonce].state == State.Signed, \"The title has been signed\");\n    _;\n  }\n\n  modifier registered(uint256 _nonce) {\n    require(\n      titles[_nonce].state == State.Registered,\n      \"The title has been registered\"\n    );\n    _;\n  }\n\n  modifier toBeTransfered(uint256 _nonce) {\n    require(\n      titles[_nonce].state == State.ToBeTransfered,\n      \"The title is ready to be transfered\"\n    );\n    _;\n  }\n\n  modifier transfered(uint256 _nonce) {\n    require(\n      titles[_nonce].state == State.Transfered,\n      \"The title has been transfered\"\n    );\n    _;\n  }\n\n  constructor() public {\n    // Set the owner to the transaction sender.\n    owner = msg.sender;\n    // Set the address for the \"land registy office\".\n    registryAddress = address(1);\n    // Set the registry fee, as determined by the \"land registry office\".\n    registryFee = 1;\n    // Set the transfer fee, as determined by the \"land registry office\".\n    transferFee = 1;\n    // Initialize the nonce to 0.\n    nonce = 0;\n  }\n\n  function addTitle(\n    string memory _ID,\n    uint256 _size,\n    string memory _location,  \n    string memory _image\n  ) public returns (bool) {\n    titles[nonce] = Title(\n      _ID,\n      msg.sender,\n      _size,\n      _location,\n      _image,\n      State.ToBeRegistered,\n      nonce\n    );\n    emit LogToBeRegistered(nonce);\n    nonce = nonce + 1;\n    return true;\n  }\n\n  /**\n  * In general, ECDSA signatures consist of two parameters, r and s. \n  * Signatures in Ethereum include a third parameter, v, which provides \n  * additional information that can be used to recover which account’s \n  * private key was used to sign the message. This same mechanism is \n  * how Ethereum determines which account sent a given transaction.\n  * Solidity provides a built-in function ecrecover that accepts a \n  * message along with the r, s, and v parameters and returns \n  * the address that was used to sign the message.\n  *\n  * Splitting the signature to obtain these params is, therefore, necessary.\n  */\n\n  function splitSignature(bytes memory sig)\n        internal\n        pure\n        returns (uint8, bytes32, bytes32)\n    {\n        require(sig.length == 65);\n\n        bytes32 r;\n        bytes32 s;\n        uint8 v;\n        /**\n        * r and s are 32 bytes each and together make up \n        * the first 64 bytes of the signature.\n        * v is the 65th byte, which can be found at byte \n        * offset 96 (32 bytes for the length, 64 bytes for r and s). \n        * The mload opcode loads 32 bytes at a time, so the \n        * function then needs to extract just the first byte \n        * of the word that was read. This is what byte(0, ...) does.\n        */\n        assembly {\n            // first 32 bytes, after the length prefix\n            r := mload(add(sig, 32))\n            // second 32 bytes\n            s := mload(add(sig, 64))\n            // final byte (first byte of the next 32 bytes)\n            v := byte(0, mload(add(sig, 96)))\n        }\n\n        return (v, r, s);\n    }\n\n    function recoverSigner(bytes32 message, bytes memory sig, uint _nonce)\n        internal\n        returns (address)\n    {\n        uint8 v;\n        bytes32 r;\n        bytes32 s;\n\n        (v, r, s) = splitSignature(sig);\n\n        titles[_nonce].state = State.Signed;\n        // Can I put this after the return?\n        emit LogSigned(_nonce);\n        return ecrecover(message, v, r, s);\n    }\n\n    /**\n    * In addition to the r, s, and v parameters from the signature, \n    * recovering the message signer requires knowledge of the message \n    * that was signed. The message hash needs to be recomputed from \n    * the sent parameters along with the known prefix.\n    *\n    * It may seem tempting at first to just have the caller pass in \n    * the message that was signed, but that would only prove that \n    * some message was signed by the owner. The smart contract needs \n    * to know exactly what parameters were signed, and so it must \n    * recreate the message from the parameters and use that for \n    * signature verification.\n    */\n    // Builds a prefixed hash to mimic the behavior of eth_sign.\n    function prefixed(bytes32 hash) internal pure returns (bytes32) {\n        return keccak256(abi.encodePacked(\"\\x19Ethereum Signed Message:\\n32\", hash));\n    }\n\n    function registerTitle(bytes memory sig, uint amount, uint _nonce) private signed(_nonce) paidEnough(registryFee) checkValue(_nonce) {\n        require(!usedNonces[_nonce]);\n        usedNonces[_nonce] = true;\n\n        // This recreates the message that was signed on the client.\n        bytes32 message = prefixed(keccak256(abi.encodePacked(msg.sender, amount, nonce, this)));\n\n        require(recoverSigner(message, sig, _nonce) == owner);\n\n        registryAddress.transfer(registryFee);\n        titles[_nonce].state = State.Registered;\n        emit LogRegistered(_nonce);\n    }\n\n    // Destroy contract and reclaim leftover funds.\n    function kill() public {\n        require(msg.sender == owner);\n        selfdestruct(msg.sender);\n    }\n\n  function fetchTitle(uint256 _nonce)\n    public\n    view\n    returns (\n      string memory ID,\n      address currOwner,\n      uint256 none,\n      uint256 size,\n      string memory location,\n      string memory image,\n      uint256 state\n    )\n  {\n    ID = titles[_nonce].ID;\n    currOwner = titles[_nonce].currOwner;\n    size = titles[_nonce].size;\n    location = titles[_nonce].location;\n    image = titles[_nonce].image;\n    state = uint256(titles[_nonce].state);\n\n    return (ID, currOwner, nonce, size, location, image, state);\n  }\n\n\n}\n",
  "sourcePath": "/Users/sandraabago/Desktop/Sandy/ConsenSys/blockchain-developer-bootcamp-final-project/src/contracts/LandTitle.sol",
  "compiler": {
    "name": "solc",
    "version": "0.5.16+commit.9c3226ce.Emscripten.clang"
  },
  "schemaVersion": "3.2.3",
  "updatedAt": "2021-10-18T09:36:44.434Z",
  "devdoc": {
    "methods": {}
  },
  "userdoc": {
    "methods": {}
  }
}